:100000000C948C000C94B4000C94B4000C9419045F
:100010000C9419040C9419040C94B4000C94B400BE
:100020000C94B4000C94B4000C94B4000C94B40080
:100030000C94B4000C94B4000C94B4000C94B40070
:100040000C947B080C94B4000C94E7030C94C1034B
:100050000C94B4000C94B4000C94B4000C94B40050
:100060000C94B4000C94B4003F0C590C6E0C890C29
:10007000940CE90CF00CFA0C050D150D150D150D71
:10008000150D150D150D150D150D150D150D150D60
:10009000150D150D150D150D150D150D150D150D50
:1000A000150D150D150D150D3F0C540C590C6E0C3E
:1000B000890C940CAF0CBA0C390C00000000240021
:1000C00027002A00000000080002010000030407C6
:1000D00000000000000000000000000023002600D7
:1000E000290000000000250028002B00040404045F
:1000F00004040404020202020202030303030303D2
:1001000001020408102040800102040810200102AE
:10011000040810208210661011241FBECFEFD8E013
:10012000DEBFCDBF12E0A0E0B1E0E6E7F9E202C039
:1001300005900D92A034B107D9F723E0A0E4B2E016
:1001400001C01D92AF3CB207E1F710E0CBE8D0E070
:1001500004C02197FE010E946D14CA38D107C9F767
:100160000E940A090C94AE140C940000CF92DF9206
:10017000EF92FF920F931F93CF93DF936C017A015D
:100180008B01C0E0D0E0CE15DF0581F0D8016D9184
:100190008D01D601ED91FC910190F081E02DC60119
:1001A0000995892B11F02196EECF7E01C701DF91D1
:1001B000CF911F910F91FF90EF90DF90CF90089516
:1001C000FC01538D448D252F30E0842F90E0821B5D
:1001D000930B541710F0CF96089501970895FC01E2
:1001E000918D828D981761F0828DDF01A80FB11D6E
:1001F0005D968C91928D9F5F9F73928F90E0089592
:100200008FEF9FEF0895FC01918D828D981731F04B
:10021000828DE80FF11D858D90E008958FEF9FEF9F
:100220000895FC01918D228D892F90E0805C9F4F75
:10023000821B91098F739927089584E892E00E94A8
:10024000110121E0892B09F420E0822F0895FC019F
:10025000848DDF01A80FB11DA35ABF4F2C91848D4F
:1002600090E001968F739927848FA689B7892C9384
:10027000A089B1898C91837080648C93938D848DD7
:10028000981306C00288F389E02D80818F7D8083DA
:100290000895EF92FF920F931F93CF93DF93EC019A
:1002A00081E0888F9B8D8C8D981305C0E889F98932
:1002B000808185FD26C0F62E0B8D10E00F5F1F4F4D
:1002C0000F731127E02E8C8DE8120CC00FB607FCBF
:1002D000FACFE889F989808185FFF5CFCE010E94A8
:1002E0002701F1CF8B8DFE01E80FF11DE35AFF4F7F
:1002F000F0829FB7F8940B8FEA89FB898081806236
:100300000AC09FB7F894EE89FF896083E889F9896C
:1003100080818370806480839FBF81E090E0DF9163
:10032000CF911F910F91FF90EF900895CF93DF939E
:10033000EC01888D8823C9F0EA89FB89808185FDDD
:1003400005C0A889B9898C9186FD0FC00FB607FC3E
:10035000F5CF808185FFF2CFA889B9898C9185FF7F
:10036000EDCFCE010E942701E7CFDF91CF91089515
:1003700080E090E0892B29F00E941D0181110C94EE
:1003800000000895209182023091830228173907D6
:1003900071F49091800280918102981741F0E09170
:1003A0008002F0E0E05CFD4F808190E008958FEFE7
:1003B0009FEF089508951F93CF93DF93DC015C9620
:1003C0008D919C915D97009739F421E030E0139670
:1003D0003C932E9312973BC05196ED91FC9152970E
:1003E00050962C915097322F30951FB75E964C91B6
:1003F0005E97742F727041FD6095F8944081772369
:1004000011F0422B01C043234083EC012197F1F707
:1004100048E0508160FF02C0522B01C0532350833B
:10042000EC012197F1F76695415099F78081772388
:1004300019F08323808302C0282B20831FBF5C9682
:100440008D919C915D970197F1F781E090E0DF91AC
:10045000CF911F9108952091820230918302281735
:10046000390771F4809181022091800290E0805CD4
:100470009F4F821B910960E470E00E943714089539
:1004800080E090E008952091820230918302281745
:100490003907B9F49091800280918102981789F010
:1004A000E0918002F0E0E05CFD4F808120918002CD
:1004B00030E02F5F3F4F2F7333272093800290E06F
:1004C00008958FEF9FEF0895089580E090E00895DC
:1004D0000E94A9146115710579F0FB0101900020BB
:1004E000E9F73197AF01461B570BDC01ED91FC9109
:1004F0000280F381E02D099480E090E008950F934D
:100500001F93CF93DF93EC010E946A028C0166E295
:1005100071E0CE010E946A02800F911FDF91CF919E
:100520001F910F9108950C946A028F929F92AF923F
:10053000BF92EF92FF920F931F93CF93DF93CDB7AC
:10054000DEB7A1970FB6F894DEBF0FBECDBF7C011A
:10055000FA01CB0119A2223008F42AE08E010F5DC6
:100560001F4F822E912CA12CB12CBF01A50194010B
:100570000E944B14F901CA01015011096A3014F4A8
:10058000605D01C0695CD8016C93232B242B252B63
:1005900061F7B801C7010E946A02A1960FB6F894EC
:1005A000DEBF0FBECDBFDF91CF911F910F91FF90A6
:1005B000EF90BF90AF909F908F900895DC01ED91E8
:1005C000FC910190F081E02D09947F928F929F928F
:1005D000AF92BF92CF92DF92EF92FF920F931F9351
:1005E000CF93DF938C016A017B01722E9A01AB01DC
:1005F000C701B6010E942214882319F069E271E054
:1006000027C046015701E894B7F82FEF3FEF4FE7B7
:100610005FE7C501B4010E94221481110DC02FEFC4
:100620003FEF4FE75FE7C501B4010E94581218166B
:100630001CF46DE271E00CC02FEF3FEF4FE75FE479
:10064000C701B6010E94B013181694F461E371E07B
:10065000C801DF91CF911F910F91FF90EF90DF9034
:10066000CF90BF90AF909F908F907F900C946A0234
:100670002FEF3FEF4FE75FECC701B6010E94581222
:1006800087FDE4CF20E030E0A901C701B6010E9458
:10069000581287FF0AC06DE2C8010E94DE02EC0119
:1006A000F7FAF094F7F8F09402C0C0E0D0E0B12C73
:1006B00060E070E080E09FE37B1441F020E030E0F8
:1006C00040E251E40E945D12B394F6CFA701960177
:1006D0000E94EC116B017C010E94CF124B015C0166
:1006E0002AE0AB01BC01C8010E949502C80FD91FC6
:1006F0007720C1F1C501B4010E94FE129B01AC013B
:10070000C701B6010E94EB116B017C016EE2C801CA
:100710000E94DE02C80FD91F20E030E040E251E421
:10072000C701B6010E94B5134B015C010E94CF12B4
:100730006B01E12CF12C2AE0B701A601C8010E944F
:100740009502C80FD91FC701B6010E94FE129B0176
:10075000AC01C501B4010E94EB116B017C017A94DC
:100760007110DACFCE01DF91CF911F910F91FF90E1
:10077000EF90DF90CF90BF90AF909F908F907F9041
:1007800008951F920F920FB60F9211242F933F934B
:100790004F935F936F937F938F939F93AF93BF9389
:1007A000EF93FF9384E892E00E942701FF91EF917D
:1007B000BF91AF919F918F917F916F915F914F9179
:1007C0003F912F910F900FBE0F901F9018951F9281
:1007D0000F920FB60F9211242F938F939F93EF9345
:1007E000FF93E0919402F09195028081E0919A024A
:1007F000F0919B0282FD12C0908180919D028F5FDB
:100800008F7320919E02821751F0E0919D02F0E0DB
:10081000EC57FD4F958F80939D0201C08081FF9121
:10082000EF919F918F912F910F900FBE0F901F907E
:1008300018951F920F920FB60F9211242F933F938A
:100840004F935F936F937F938F939F93AF93BF93D8
:10085000EF93FF93E0918202F0918302309709F4C5
:1008600051C0968DA685B785858591FF04C09C9162
:10087000892329F447C09C91892309F043C0A389A7
:10088000B4899C918589809589238C9386899789E1
:100890000197F1F7608D718DA685B785558538E094
:1008A00020E0CB010197F1F7822F90E09595879595
:1008B000282F4C91452309F02068315091F7868DFF
:1008C00081FD20958091810290E001968F73992798
:1008D00030918002381749F0A0918102B0E0A05C0D
:1008E000BD4F2C938093810203C0868D8160868FDB
:1008F000828D938D0197F1F7A389B4899C918589A5
:10090000892B8C93FF91EF91BF91AF919F918F9124
:100910007F916F915F914F913F912F910F900FBEFB
:100920000F901F901895CF92DF92EF92FF92CF9386
:10093000DF93B0919B03882311F0AB2F01C0A0E09F
:1009400080919C0390E0880F991F88529F4FC09020
:10095000A103D090A203E090A303F090A40320E0B1
:1009600030E0FC01C591D491E881EB23A90160E05E
:1009700070E0EA130CC02F5F3F4F4C155D056E050C
:100980007F0578F33FEF2FEF8FEF9FEF03C0322FFC
:10099000252FCB01632F722FDF91CF91FF90EF9026
:1009A000DF90CF900895833081F028F4813099F062
:1009B0008230A1F008958730A9F08830B9F08430F2
:1009C000D1F4809180008F7D03C0809180008F776B
:1009D00080938000089584B58F7702C084B58F7DA1
:1009E00084BD08958091B0008F7703C08091B000DE
:1009F0008F7D8093B00008951F93CF93DF93282FAE
:100A000030E0F901EC53FF4F8491F901E050FF4FC2
:100A1000D491F901E451FF4FC491CC23C1F0162FBA
:100A200081110E94D304EC2FF0E0EE0FFF1FEE5176
:100A3000FF4FA591B4919FB7F894111104C08C9108
:100A4000D095D82302C0EC91DE2BDC939FBFDF91C1
:100A5000CF911F9108953FB7F8948091CB03909167
:100A6000CC03A091CD03B091CE0326B5A89B05C0C1
:100A70002F3F19F00196A11DB11D3FBFBA2FA92F1D
:100A8000982F8827820F911DA11DB11DBC01CD019A
:100A900042E0660F771F881F991F4A95D1F7089586
:100AA000CF92DF92EF92FF920F931F93CF93DF933A
:100AB00077FF1DC06A017B01EC016DE20E94DE023E
:100AC0008C0144275527BA014C195D096E097F092D
:100AD0002AE0CE010E949502800F911FDF91CF91F5
:100AE0001F910F91FF90EF90DF90CF9008952AE033
:100AF000DF91CF911F910F91FF90EF90DF90CF90FA
:100B00000C949502CF92DF92EF92FF920F931F9376
:100B1000CF93DF93C0917703CD3219F4E8E7F3E088
:100B200002C0E7E7F3E08F0120E030E0A901D8013F
:100B3000DD918D0180ED8D0F8A30B0F4AAE0B0E038
:100B40000E947314CD2EDD0FDD08EE08FF08DC01D6
:100B5000CB018C0D9D1DAE1DBF1D9C01AD01205311
:100B6000310941095109E3CFA4E6B0E00E947314B2
:100B7000DF01219130ED320F3A30D0F32E3269F59A
:100B800011962C91119730ED320F3A3030F5022E3C
:100B9000000C330B205331094AE0429F8001439FF0
:100BA000100D1124012E000C220B330B600F711F4E
:100BB000821F931F12960C9120ED200F2A3068F4AB
:100BC000002E000C110B00531109012E000C220BFA
:100BD000330B600F711F821F931FCD3239F4909534
:100BE0008095709561957F4F8F4F9F4FDF91CF918B
:100BF0001F910F91FF90EF90DF90CF9008954F924B
:100C00005F926F927F928F929F92AF92BF92CF929C
:100C1000DF92EF92FF921F93CF93DF93C7E7D3E06A
:100C2000FE01812C912C5401119180ED810F8A30AD
:100C3000A8F4AAE0B0E0A50194010E947314812EEB
:100C4000110F9908AA08BB08860E971EA81EB91E88
:100C500080E3881A9108A108B108E6CFC501B40164
:100C600024E630E040E050E00E944B149B01AC01D0
:100C700060EA76E881E090E00E9427146B017C0135
:100C80009E01899190ED980F9A30D0F38E3221F524
:100C9000E901219680E1482E87E2582E612C712CC3
:100CA000A99180ED8A0F8A30B8F40A2E000CBB0B94
:100CB000D097A30192010E947E14C60ED71EE81E93
:100CC000F91EC301B2012AE030E040E050E00E948A
:100CD0004B1429013A01E4CFC501B40124E630E008
:100CE00040E050E00E944B1460E472E48FE090E03A
:100CF0000E9427144B015C01C701B6016D5F7F4F55
:100D00008F4F9F4F26E030E040E050E00E944B14B0
:100D1000C501B401620F731F841F951FDF91CF912E
:100D20001F91FF90EF90DF90CF90BF90AF909F907A
:100D30008F907F906F905F904F9008950F931F93C7
:100D400090E0FC01E050FF4F6491FC01E451FF4F43
:100D5000E491F0E0EE0FFF1FE852FF4F8591949170
:100D600000E613EE26E130E0462F0E94C50861152B
:100D700071058105910549F0DC01CB010196A11DAA
:100D8000B11DBC01CD019F7003C060E070E0CB01DC
:100D90001F910F910895CF93DF93282F30E0F90131
:100DA000EC53FF4F8491F901E050FF4FD491F901CA
:100DB000E451FF4FC491CC2391F081110E94D304E0
:100DC000EC2FF0E0EE0FFF1FE852FF4FA591B4911A
:100DD000EC91ED2381E090E021F480E002C080E01E
:100DE00090E0DF91CF910895CF93DF9390E0FC01E5
:100DF000E050FF4F2491FC01E451FF4F8491882380
:100E000061F190E0880F991FFC01E654FF4FC591F6
:100E1000D491FC01EE51FF4FA591B491611109C02D
:100E20009FB7F8948881209582238883EC912E23A4
:100E30000BC0623061F49FB7F8948881322F3095EF
:100E400083238883EC912E2B2C939FBF06C08FB7F2
:100E5000F894E8812E2B28838FBFDF91CF910895DE
:100E60008F929F92AF92BF92CF92DF92EF92FF92BA
:100E70006B017C010E942B054B015C01C114D10464
:100E8000E104F104F1F00E942B05DC01CB0188198B
:100E90009909AA09BB09883E9340A105B10570F3E1
:100EA00021E0C21AD108E108F10888EE880E83E03B
:100EB000981EA11CB11CC114D104E104F10419F75E
:100EC000DDCFFF90EF90DF90CF90BF90AF909F90DD
:100ED0008F9008952FB7F8946091C7037091C8035D
:100EE0008091C9039091CA032FBF0895CF92DF92DA
:100EF000EF92FF920F931F93CF93DF93CDB7DEB79F
:100F0000C054D1400FB6F894DEBF0FBECDBF0E94D3
:100F10006A0700919D0310919E0320919F033091D9
:100F2000A0036B017C01C01AD10AE20AF30A40ED6A
:100F3000C41647E0D406E104F10418F48091A50337
:100F4000CAC060939D0370939E0380939F03909308
:100F5000A003109298031092970310929603109298
:100F600095031092940362E0809199030E94F40625
:100F700061E070E080E090E00E94300761E08091E5
:100F800099030E94F40660E0809199030E94FC049A
:100F900080919A038551823028F48BE291E1019788
:100FA000F1F706C064E170E080E090E00E94300755
:100FB00062E0809199030E94F4068091A60390E07C
:100FC0008230910538F0880F991F880F991F059777
:100FD0000197F1F7F89480E00E9493046F3F7F4FF0
:100FE0008F4F9F4F21F41092A503789441C081E068
:100FF0000E9493046F3F7F4F8F4F9F4FA1F38E014D
:101000000F5F1F4F6E012FEBC21A2EEFD20A78012D
:1010100080E00E949304F70160837183828393834D
:1010200081E00E949304F70164837583868397832C
:10103000F8E0EF0EF11CEC14FD0451F7789420E079
:1010400030E0F801C080D180E280F3804481558196
:1010500066817781FFEFCF16DF06EF06FF0631F0DE
:101060004F3F8FEF58076807780721F41092A503C8
:1010700080E031C0F90183E0F595E7958A95E1F7C5
:10108000EC56FC4F8081880FC416D506E606F7069D
:1010900008F4816080832F5F3F4F085F1F4F283225
:1010A000310579F62091980330E0409194038091C6
:1010B000950390E0840F911D40919603840F911D3C
:1010C00040919703840F911D99272817390771F6CE
:1010D00081E08093A503C05CDE4F0FB6F894DEBFBD
:1010E0000FBECDBFDF91CF911F910F91FF90EF9079
:1010F000DF90CF9008951F920F920FB60F92112498
:101100002F933F938F939F93AF93BF938091C70388
:101110009091C803A091C903B091CA033091C6034E
:1011200023E0230F2D3720F40196A11DB11D05C02A
:1011300026E8230F0296A11DB11D2093C6038093BC
:10114000C7039093C803A093C903B093CA038091C7
:10115000CB039091CC03A091CD03B091CE03019627
:10116000A11DB11D8093CB039093CC03A093CD031D
:10117000B093CE03BF91AF919F918F913F912F91EB
:101180000F900FBE0F901F901895CF92DF92EF92A5
:10119000FF920F931F93E82FF92F05C001501109FB
:1011A0002109310961F1908196239417B9F305C0A3
:1011B000015011092109310911F1908196239413ED
:1011C000F7CFC12CD12CE12CF12C0AC08FEFC81A1B
:1011D000D80AE80AF80A0C151D052E053F0579F016
:1011E00080818623841791F36C2D7D2D8E2D9F2D6C
:1011F0001F910F91FF90EF90DF90CF90089560E0E6
:1012000070E080E090E01F910F91FF90EF90DF90F1
:10121000CF900895CF93DF93CDB7DEB728970FB661
:10122000F894DEBF0FBECDBF789484B5826084BDD4
:1012300084B5816084BD85B5826085BD85B58160DA
:1012400085BD80916E00816080936E001092810058
:101250008091810082608093810080918100816013
:1012600080938100809180008160809380008091D4
:10127000B10084608093B1008091B0008160809360
:10128000B00080917A00846080937A0080917A0027
:10129000826080937A0080917A00816080937A00E6
:1012A00080917A00806880937A001092C100E0916A
:1012B0009402F091950282E08083E0919002F09197
:1012C00091021082E0919202F09193028FEC808360
:1012D00010929C02E0919802F091990286E080833E
:1012E000E0919602F0919702808180618083E09185
:1012F0009602F0919702808188608083E091960247
:10130000F0919702808180688083E0919602F0914D
:10131000970280818F7D80831092C2031092C10357
:101320001092C0031092BF031092BE031092BD032F
:101330008DE991E09093C4038093C3039091B3032C
:10134000963108F058C02DEB30E03093BE03209367
:10135000BD032BE931E03093C0032093BF032CE29F
:1013600031E03093C2032093C1034091680098306C
:1013700058F031E09E3008F430E021E0822F01C0C7
:10138000880F3A95EAF701C084E0842B80936800C7
:10139000983038F09E3040F0963148F42CE630E03A
:1013A00008C02DE630E005C02BE630E002C020E0AA
:1013B00030E03093BB032093BA03983030F481E0DF
:1013C00001C0880F9A95EAF70EC0292F30E09E30B1
:1013D00018F42850310902C02E50310981E001C0B3
:1013E000880F2A95EAF78093BC038091C3039091FC
:1013F000C4030197F1F78091C1039091C203892B37
:1014000049F1E0918202F091830223E0E73AF2078A
:1014100009F1309739F0A389B4899C918589809529
:1014200089238C938091C5038E7F8093C50310928E
:1014300081021092800287EA93E090938302809366
:101440008202E091BA03F091BB0390818091BC03CA
:10145000892B808362E0809199030E94F4060E94A8
:101460006A07DC01CB01805D9740A109B109809337
:101470009D0390939E03A0939F03B093A00387E3E3
:101480008093A60365E371E084E892E00E947F0206
:1014900069EC71E084E892E00E947F0265E371E00C
:1014A00087EA93E00E947F0269EC71E087EA93E0AB
:1014B0000E947F0268EE73E080E090E00E943007B7
:1014C00085E00E949E0628EE33E040E050E00E9456
:1014D0004B1449015A0186E00E949E0628EE33E033
:1014E00040E050E00E944B1429833A834B835C8395
:1014F0008BE00E94CB069E838D838CE00E94CB06FE
:101500001C010E946A076B017C01612C0E946A0722
:10151000DC01CB018C199D09AE09BF09883E9340BF
:10152000A105B10508F0B7C284E892E00E9411015C
:10153000892B61F384E892E00E94EF00782E80917D
:101540008A0390918B03A0918C03B0918D03019637
:10155000A11DB11D80938A0390938B03A0938C03EC
:10156000B0938D03F4E27F1609F473C2E09188030F
:10157000F7153CF02AE0721679F08DE0781277C208
:101580000BC09AE2791641F0ACE27A1270C28091F7
:101590007503872580937503EF3008F046C2F0E0AD
:1015A000E958FC4F108280917603882309F428C102
:1015B000209177033FEB320F822F022E000C990B04
:1015C000363010F4C79707C02156263018F48755D7
:1015D000910901C0C097382F3295307F2091780350
:1015E0004FEB420F822F022E000C990B463010F465
:1015F000C79707C02156263018F48755910901C0B6
:10160000C097830F909175038913F0C0809189036F
:10161000882309F40AC280918E0390918F0301966A
:1016200090938F0380938E038091690390916A0356
:10163000A0916B03B0916C03809365039093660354
:10164000A0936703B0936803809171039091720334
:10165000A0917303B091740380936D0390936E0314
:10166000A0936F03B093700380918603882309F4DD
:1016700064C0813009F0D4C1809125039091260384
:10168000A0912703B0912803809321039093220314
:10169000A0932303B093240380912D0390912E03F4
:1016A000A0912F03B09130038093290390932A03D4
:1016B000A0932B03B0932C038091350390913603B4
:1016C000A0913703B0913803809331039093320394
:1016D000A0933303B093340380913D0390913E0374
:1016E000A0913F03B09140038093390390933A0354
:1016F000A0933B03B0933C0380914D0390914E0324
:10170000A0914F03B09150038093490390934A03F3
:10171000A0934B03B0934C038091550390915603D3
:10172000A0915703B09158038093510390935203B3
:10173000A0935303B093540373C1809145039091D8
:101740004603A0914703B0914803809341039093CF
:101750004203A0934303B0934403809125039091E7
:101760002603A0912703B09128038093210390932F
:101770002203A0932303B093240380913503909117
:101780003603A0913703B0913803809331039093CF
:101790003203A0933303B093340380913D039091BF
:1017A0003E03A0913F03B09140038093390390938F
:1017B0003A03A0933B03B0933C0380916303909161
:1017C0006403909362038093610380915D03909121
:1017D0005E03A0915F03B0916003809359039093DF
:1017E0005A03A0935B03B0935C031AC180919003EA
:1017F000909191030196909391038093900315C16A
:101800009091870391111DC047E753E0A3E6B1E033
:10181000CA01FC012191CF01222309F403C13D91AA
:101820002317B9F3A9E6B1E0FA018191AF0188234A
:1018300009F4E0C29D918917B9F3A2E0A093860351
:10184000F4C0E0918603E23009F4EFC080917703A1
:10185000882309F4EAC020E2E29FF0011124E92B79
:101860003197E932F10508F0E0C0EC5CFF4F0C94D1
:101870006D14E7E7F3E020E030E0A90186C00E94A4
:10188000820560932503709326038093270390932A
:1018900028030E946A076093690370936A03809328
:1018A0006B0390936C03C1C091E0813409F094C044
:1018B00094C00E94FF0560933503709336038093B4
:1018C0003703909338030E946A0760937103709303
:1018D00072038093730390937403A7C0833509F058
:1018E000A4C08091350390913603A0913703B09145
:1018F0003803B095A095909581959F4FAF4FBF4FFE
:101900008093350390933603A0933703B093380345
:101910008CC00E94FF0560933D0370933E0380934B
:101920003F039093400381C0873509F07EC08091CA
:101930003D0390913E03A0913F03B0914003B095C9
:10194000A095909581959F4FAF4FBF4F80933D03DA
:1019500090933E03A0933F03B093400366C00E9460
:10196000820560934D0370934E0380934F039093D1
:1019700050035BC00E948205609355037093560329
:10198000809357039093580350C0119180ED810FBD
:101990008A30B0F4AAE0B0E00E947314012F110F56
:1019A000110B220B330BDC01CB01800F911FA21F07
:1019B000B31F9C01AD012053310941095109E5CF05
:1019C00020932D0330932E0340932F035093300325
:1019D0002CC091E081330CF490E09093890325C0F2
:1019E00087E793E00E94C511992790936403809341
:1019F00063031BC00E94820560935D0370935E03C6
:101A000080935F039093600310C00E9482056093EF
:101A1000450370934603809347039093480305C0A2
:101A200081E004C091E09093860380E09091870369
:101A30009F5F909387031092880391E0AAE27A1245
:101A400090E090937603882309F46ECD6624639426
:101A50006BCD109288031092870310927503B2E049
:101A6000B093860310927603109289035DCDEE3019
:101A700040F481E08E0F80938803F0E0E958FC4F3A
:101A800070828091760381114FCD80917503782605
:101A90007092750349CD662009F4BFC0C090310330
:101AA000D0903203E0903303F09034034090390338
:101AB00050903A0360903B0370903C0380916D031B
:101AC00090916E03A0916F03B09170038F3F9F4F71
:101AD000AF4FBF4F11F00E946A07FFEFCF16F9EC2E
:101AE000DF06FAE9EF06FBE3FF0609F4DAC2C701F5
:101AF000B6010E94001320E034E244E759E40E945A
:101B00005D127B0188879F83C301B2010E9400138D
:101B100020E034E244E759E40E945D126B018C013D
:101B20006FE671E084E892E00E94930220E030E0EA
:101B30004AE754E4B70188859F810E9458128111B9
:101B4000A6C2E0E030E090E026E04E2F532F692F50
:101B5000782F84E892E00E94E5026BE771E084E868
:101B600092E00E94930220E030E04AE754E4B6019C
:101B7000C8010E94581281118FC2E0E030E090E06D
:101B800026E04E2F532F692F782F84E892E00E9491
:101B9000E50266E271E084E892E00E946A026FE684
:101BA00071E087EA93E00E94930220E030E04AE788
:101BB00054E4B70188859F810E945812811104C0A6
:101BC000E12CF12C18861F8226E0A70168857F8111
:101BD00087EA93E00E94E5026BE771E087EA93E011
:101BE0000E94930220E030E04AE754E4B601C801C5
:101BF0000E945812811104C0C12CD12C00E010E0C9
:101C000026E0A601B80187EA93E00E94E50266E2B9
:101C100071E087EA93E00E946A022AE040E050E027
:101C2000BA0184E892E00E94950266E271E084E8DD
:101C300092E00E946A020E9476078823D1F1809187
:101C40009A038B30B0F18D30A8F08551823088F541
:101C5000609194037091950376276727762780E03B
:101C600090E00E94FE122DEC3CEC4CEC5DE30E94F7
:101C7000B5131CC06091950370E080E090E00E9475
:101C800000132DEC3CEC4CEC5DE30E94B5136B01B2
:101C90007C016091940370E080E090E00E9400136A
:101CA0009B01AC01C701B6010E94EC112B013C0164
:101CB00006C0412C512C20EC622E2FE7722E0E9480
:101CC0007607882309F499C080919A038C30B1F18A
:101CD00018F48B3031F077C08551823008F454C04D
:101CE00072C06091960370E080E090E00E94FE1266
:101CF0006B017C01F0919703FF83F7FF0AC09B0102
:101D0000AC0160E070E080E89FEB0E94EB116B019A
:101D10007C012F812F70622F70E080E090E00E94A4
:101D200000132DEC3CEC4CEC5DE30E94B513A701D5
:101D300096010E94EC116B017C014BC080919603CF
:101D40008F83609197036F7070E080E090E00E9455
:101D500000132DEC3CEC4CEC5DE30E94B5136B01E1
:101D60007C01AF816A2F70E080E090E00E94FE125B
:101D70009B01AC01C701B6010E94EC116B017C0113
:101D8000BF81B7FF26C01AC0E0919603EF836E2F84
:101D90006F7770E0762F662780919703682B80E03D
:101DA00090E00E94FE122DEC3CEC4CEC5DE30E94B6
:101DB000B5136B017C01FF81F7FF0BC0F7FAF094BC
:101DC000F7F8F09406C0C12CD12C80ECE82E8FE7F8
:101DD000F82EA3019201C301B2010E9422148111C5
:101DE0000CC0A7019601C701B6010E9422148823E6
:101DF00099F003C01092860318CE60E272E084E886
:101E000092E00E947F0262E078E080E090E00E9431
:101E100030070E94B80154CB6EEC71E087EA93E082
:101E20000E9493024091000150910101CA01019664
:101E30009093010180930001052E000C660B770B37
:101E400087EA93E00E94500566E271E087EA93E03A
:101E50000E946A0266ED71E087EA93E00E949302B5
:101E6000B2E08B1A9108A108B108B501A40187EA74
:101E700093E00E9450056CEE71E087EA93E00E94C7
:101E80007F0262EF71E087EA93E00E94930289810A
:101E90009A81AB81BC810297A109B10989839A8398
:101EA000AB83BC83AC01BD0187EA93E00E9450057F
:101EB0006CEE71E087EA93E00E947F0267E072E0D7
:101EC00087EA93E00E949302AD81BE811A161B0639
:101ED0001CF46CE871E002C069E871E087EA93E005
:101EE0000E947F0269E971E087EA93E00E94930211
:101EF000121413041CF46CE871E002C069E871E08C
:101F000087EA93E00E947F0260EB71E087EA93E04A
:101F10000E94930222E0B301A20187EA93E00E94AB
:101F2000E5026BEB71E087EA93E00E947F026DEBC4
:101F300071E087EA93E00E94930222E0B701A601D4
:101F400087EA93E00E94E5026BEC71E087EA93E098
:101F50000E947F0269EC71E087EA93E00E947F02B1
:101F60006EEC71E084E892E00E94930240910001DF
:101F700050910101CA0101969093010180930001E3
:101F8000052E000C660B770B84E892E00E9450054A
:101F900066E271E084E892E00E946A0266ED71E018
:101FA00084E892E00E949302B501A40184E892E0E3
:101FB0000E9450056CEE71E084E892E00E947F027E
:101FC00062EF71E084E892E00E94930249815A81B5
:101FD0006B817C8184E892E00E9450056CEE71E098
:101FE00084E892E00E947F0267E072E084E892E079
:101FF0000E9493028D819E81AC01990F660B770B35
:1020000084E892E00E9450056CE172E084E892E07E
:102010000E947F0269E971E084E892E00E949302E5
:10202000A101330C660B770B84E892E00E94500507
:102030006CE172E084E892E00E947F0260EB71E064
:1020400084E892E00E94930222E0B301A20184E8B6
:1020500092E00E94E5026BEB71E084E892E00E945E
:102060007F026DEB71E084E892E00E94930222E02F
:10207000B701A60184E892E00E94E5026BEC71E0F2
:1020800084E892E00E947F0269EC71E0B8CEEE2D08
:102090003F2D98858F8158CDEC2D3D2D902F812F90
:1020A0006FCD6FE671E084E892E00E949302C12C4C
:1020B000D12C0AE714E4E12CF12CBAE7B887E4E468
:1020C000EF83E0E030E090E080E03ECD88E191E019
:1020D0009093A8038093A70380918202909183023A
:1020E000875A934071F4E091BA03F091BB03908159
:1020F0008091BC0380958923808310928302109283
:1021000082020895109287021092860288EE93E070
:10211000A0E0B0E08093880290938902A0938A02A5
:10212000B0938B0226E031E0309385022093840245
:1021300025EC30E0309391022093900224EC30E0C3
:10214000309393022093920220EC30E0309395027A
:102150002093940221EC30E0309397022093960272
:1021600022EC30E0309399022093980226EC30E084
:1021700030939B0220939A0210929D0210929E022D
:1021800010929F021092A0021092AA031092A9032B
:102190008093AB039093AC03A093AD03B093AE03D5
:1021A00088E191E09093A8038093A7031092BE0367
:1021B0001092BD031092C0031092BF031092C2038D
:1021C0001092C1031092C4031092C3036091C5031F
:1021D0006E7F6D7F6093C5036695617081E06827AF
:1021E00084E00E94FC0461E084E00E94F406E4E0E4
:1021F000F1E0E491E093B703E0EFF0E0E491F0E088
:10220000EE0FFF1FEE51FF4F859194919093B9030C
:102210008093B80360E083E00E94F4068091C503D8
:1022200081FD04C061E083E00E94FC0483E08093B0
:10223000B303E3E0F1E0E491E093B403EFEEF0E008
:10224000E491F0E0EE0FFF1FE852FF4F859194916B
:102250009093B6038093B5038AE0809399038BE053
:1022600080939A03EAE0F1E0E491E0939B03E6EFC8
:10227000F0E0E491E0939C0380E89EE3A0E0B0E00E
:102280008093A1039093A203A093A303B093A4030C
:102290004FEF5FEFBA014093210350932203609305
:1022A0002303709324031092290310922A0310929F
:1022B0002B0310922C038FEF99ECAAE9BBE38093D8
:1022C000310390933203A0933303B093340380938C
:1022D000390390933A03A0933B03B0933C0380935C
:1022E000410390934203A0934303B093440380932C
:1022F000490390934A03A0934B03B0934C038093FC
:10230000510390935203A0935303B093540340930B
:10231000590350935A0360935B0370935C038FEFF0
:1023200090E0909362038093610340936503509320
:102330006603609367037093680340936D03509343
:102340006E0360936F037093700310927503109285
:10235000760382E0809386031092870310928803AD
:102360001092890310928A0310928B0310928C03AF
:1023700010928D0310928F0310928E03109291038E
:1023800010929003109277030895FC0188279927F3
:10239000E89421912032E9F3293010F02E30C8F36F
:1023A0002B3241F02D3239F4689404C00E94E311BD
:1023B000820F911D219120532A30C0F31EF4909575
:1023C00081959F4F08957AE0979F902D879F802D4C
:1023D000910D112408955058BB27AA270E9403127B
:1023E0000C9476130E94681338F00E946F1320F04B
:1023F00039F49F3F19F426F40C9465130EF4E0951C
:10240000E7FB0C945F13E92F0E94871358F3BA1768
:10241000620773078407950720F079F4A6F50C94FA
:10242000A9130EF4E0950B2EBA2FA02D0B01B901C4
:1024300090010C01CA01A0011124FF27591B99F03A
:10244000593F50F4503E68F11A16F040A22F232F46
:10245000342F4427585FF3CF469537952795A79596
:10246000F0405395C9F77EF41F16BA0B620B730B3D
:10247000840BBAF09150A1F0FF0FBB1F661F771FAE
:10248000881FC2F70EC0BA0F621F731F841F48F463
:10249000879577956795B795F7959E3F08F0B0CFEC
:1024A0009395880F08F09927EE0F979587950895D3
:1024B0000E943B1308F481E008950E9471120C946D
:1024C00076130E946F1358F00E94681340F029F4AD
:1024D0005F3F29F00C945F1351110C94AA130C94D4
:1024E00065130E94871368F39923B1F3552391F381
:1024F000951B550BBB27AA2762177307840738F073
:102500009F5F5F4F220F331F441FAA1FA9F335D0CF
:102510000E2E3AF0E0E832D091505040E695001C83
:10252000CAF72BD0FE2F29D0660F771F881FBB1F3D
:10253000261737074807AB07B0E809F0BB0B802D1B
:10254000BF01FF2793585F4F3AF09E3F510578F047
:102550000C945F130C94AA135F3FE4F3983ED4F3FA
:10256000869577956795B795F7959F5FC9F7880F1B
:10257000911D9695879597F90895E1E0660F771F6D
:10258000881FBB1F621773078407BA0720F0621BFE
:10259000730B840BBA0BEE1F88F7E09508950E9429
:1025A0008F1388F09F5798F0B92F9927B751B0F043
:1025B000E1F0660F771F881F991F1AF0BA95C9F7C7
:1025C00014C0B13091F00E94A913B1E008950C94A9
:1025D000A913672F782F8827B85F39F0B93FCCF35C
:1025E000869577956795B395D9F73EF49095809544
:1025F000709561957F4F8F4F9F4F0895E89409C064
:1026000097FB3EF490958095709561957F4F8F4F25
:102610009F4F9923A9F0F92F96E9BB279395F6953B
:10262000879577956795B795F111F8CFFAF4BB0FB9
:1026300011F460FF1BC06F5F7F4F8F4F9F4F16C01D
:10264000882311F096E911C0772321F09EE8872FA7
:10265000762F05C0662371F096E8862F70E060E063
:102660002AF09A95660F771F881FDAF7880F9695DC
:10267000879597F90895990F0008550FAA0BE0E880
:10268000FEEF16161706E807F907C0F01216130634
:10269000E407F50798F0621B730B840B950B39F474
:1026A0000A2661F0232B242B252B21F408950A26DA
:1026B00009F4A140A6958FEF811D811D089597F91A
:1026C0009F6780E870E060E008959FEF80EC0895D8
:1026D00000240A9416161706180609060895002401
:1026E0000A9412161306140605060895092E03947B
:1026F000000C11F4882352F0BB0F40F4BF2B11F4EF
:1027000060FF04C06F5F7F4F8F4F9F4F089557FD4D
:102710009058440F551F59F05F3F71F04795880F4F
:1027200097FB991F61F09F3F79F0879508951216E6
:1027300013061406551FF2CF4695F1DF08C0161692
:1027400017061806991FF1CF869571056105089443
:102750000895E894BB2766277727CB0197F908955A
:102760000E943B1308F48FEF08950E94C8130C9445
:1027700076130E94681338F00E946F1320F095239F
:1027800011F00C945F130C94651311240C94AA138C
:102790000E94871370F3959FC1F3950F50E0551F6A
:1027A000629FF001729FBB27F00DB11D639FAA27A6
:1027B000F00DB11DAA1F649F6627B00DA11D661FF5
:1027C000829F2227B00DA11D621F739FB00DA11D16
:1027D000621F839FA00D611D221F749F3327A00DD0
:1027E000611D231F849F600D211D822F762F6A2F6C
:1027F00011249F5750409AF0F1F088234AF0EE0FD1
:10280000FF1FBB1F661F771F881F91505040A9F7FD
:102810009E3F510580F00C945F130C94AA135F3F08
:10282000E4F3983ED4F3869577956795B795F79539
:10283000E7959F5FC1F7FE2B880F911D96958795B1
:1028400097F908950E943B13880B990B0895DB01BB
:102850008F939F930E947314BF91AF91A29F800D9D
:10286000911DA39F900DB29F900D1124089597FB89
:10287000072E16F4009407D077FD09D00E94861425
:1028800007FC05D03EF4909581959F4F0895709573
:1028900061957F4F0895A1E21A2EAA1BBB1BFD0173
:1028A0000DC0AA1FBB1FEE1FFF1FA217B307E4072F
:1028B000F50720F0A21BB30BE40BF50B661F771F87
:1028C000881F991F1A9469F7609570958095909567
:1028D0009B01AC01BD01CF010895EE0FFF1F0590D4
:1028E000F491E02D09940E949A14A59F900DB49F35
:1028F000900DA49F800D911D11240895B7FF0C9495
:1029000073140E947314821B930B0895AA1BBB1BA4
:1029100051E107C0AA1FBB1FA617B70710F0A61BDF
:10292000B70B881F991F5A95A9F780959095BC0100
:10293000CD010895A29FB001B39FC001A39F700D68
:10294000811D1124911DB29F700D811D1124911DB7
:10295000089581E090E0F8940C94AE1410E0CBE878
:10296000D0E004C0FE010E946D142196CC38D1073E
:06297000C9F7F894FFCF47
:102976000100000000004901B600E00096011101C7
:10298600EF00030100000000DB01B6006502DA017A
:102996002B024302C2010D0A006E616E00696E666B
:1029A600006F766600414E20496F542041495220FF
:1029B6005155414C49545920414E414C5953495364
:1029C60020414E4420414C455254205359535445BE
:1029D6004D3A004750524D43004750474741004C3F
:1029E60061746974756465203D2000204C6F6E67C4
:1029F6006974756465203D20004E4F204741532081
:102A06004445544543544544004D513133352053D4
:102A1600656E736F722052656164696E673A200055
:102A260048756D69646974793A2000250054656DAE
:102A360070657261747572653A20002A4300436FAF
:102A4600756E743A2000504D322E3520636F6E63DA
:102A5600656E74726174696F6E3A200075672F6DCA
:102A66003300504D313020636F6E63656E74726152
:102A760074696F6E3A20004D51392053656E736F3D
:102A8600722052656164696E673A200070706D004D
:102A96004661696C656420746F20726561642066A6
:102AA600726F6D204448542073656E736F722100F7
:107E0000112484B714BE81FFF0D085E080938100F7
:107E100082E08093C00088E18093C10086E0809377
:107E2000C20080E18093C4008EE0C9D0259A86E02C
:107E300020E33CEF91E0309385002093840096BBD3
:107E4000B09BFECF1D9AA8958150A9F7CC24DD24C4
:107E500088248394B5E0AB2EA1E19A2EF3E0BF2EE7
:107E6000A2D0813461F49FD0082FAFD0023811F036
:107E7000013811F484E001C083E08DD089C08234E0
:107E800011F484E103C0853419F485E0A6D080C0E4
:107E9000853579F488D0E82EFF2485D0082F10E0AE
:107EA000102F00270E291F29000F111F8ED06801E7
:107EB0006FC0863521F484E090D080E0DECF843638
:107EC00009F040C070D06FD0082F6DD080E0C81688
:107ED00080E7D80618F4F601B7BEE895C0E0D1E017
:107EE00062D089930C17E1F7F0E0CF16F0E7DF06D8
:107EF00018F0F601B7BEE89568D007B600FCFDCFD4
:107F0000A601A0E0B1E02C9130E011968C91119780
:107F100090E0982F8827822B932B1296FA010C0160
:107F200087BEE89511244E5F5F4FF1E0A038BF0790
:107F300051F7F601A7BEE89507B600FCFDCF97BE46
:107F4000E89526C08437B1F42ED02DD0F82E2BD052
:107F50003CD0F601EF2C8F010F5F1F4F84911BD097
:107F6000EA94F801C1F70894C11CD11CFA94CF0C13
:107F7000D11C0EC0853739F428D08EE10CD085E9AC
:107F80000AD08FE07ACF813511F488E018D01DD067
:107F900080E101D065CF982F8091C00085FFFCCF94
:107FA0009093C60008958091C00087FFFCCF809118
:107FB000C00084FD01C0A8958091C6000895E0E648
:107FC000F0E098E1908380830895EDDF803219F02E
:107FD00088E0F5DFFFCF84E1DECF1F93182FE3DFCA
:107FE0001150E9F7F2DF1F91089580E0E8DFEE27F6
:047FF000FF270994CA
:027FFE00040479
:0400000300007E007B
:00000001FF
