:100000000C948C000C94B4000C94B4000C9419045F
:100010000C9419040C9419040C94B4000C94B400BE
:100020000C94B4000C94B4000C94B4000C94B40080
:100030000C94B4000C94B4000C94B4000C94B40070
:100040000C945E080C94B4000C94E7030C94C10368
:100050000C94B4000C94B4000C94B4000C94B40050
:100060000C94B4000C94B400460C600C750C900C0D
:100070009B0CF00CF70C010D0C0D1C0D1C0D1C0D38
:100080001C0D1C0D1C0D1C0D1C0D1C0D1C0D1C0D28
:100090001C0D1C0D1C0D1C0D1C0D1C0D1C0D1C0D18
:1000A0001C0D1C0D1C0D1C0D460C5B0C600C750C06
:1000B000900C9B0CB60CC10C400C000000002400FE
:1000C00027002A00000000080002010000030407C6
:1000D00000000000000000000000000023002600D7
:1000E000290000000000250028002B00040404045F
:1000F00004040404020202020202030303030303D2
:1001000001020408102040800102040810200102AE
:10011000040810204510291011241FBECFEFD8E08D
:10012000DEBFCDBF12E0A0E0B1E0ECEFF8E202C02C
:1001300005900D92AE34B107D9F723E0AEE4B2E0FA
:1001400001C01D92AD3DB207E1F710E0CBE8D0E071
:1001500004C02197FE010E943014CA38D107C9F7A4
:100160000E94ED080C9471140C940000CF92DF9261
:10017000EF92FF920F931F93CF93DF936C017A015D
:100180008B01C0E0D0E0CE15DF0581F0D8016D9184
:100190008D01D601ED91FC910190F081E02DC60119
:1001A0000995892B11F02196EECF7E01C701DF91D1
:1001B000CF911F910F91FF90EF90DF90CF90089516
:1001C000FC01538D448D252F30E0842F90E0821B5D
:1001D000930B541710F0CF96089501970895FC01E2
:1001E000918D828D981761F0828DDF01A80FB11D6E
:1001F0005D968C91928D9F5F9F73928F90E0089592
:100200008FEF9FEF0895FC01918D828D981731F04B
:10021000828DE80FF11D858D90E008958FEF9FEF9F
:100220000895FC01918D228D892F90E0805C9F4F75
:10023000821B91098F739927089582E992E00E94A9
:10024000110121E0892B09F420E0822F0895FC019F
:10025000848DDF01A80FB11DA35ABF4F2C91848D4F
:1002600090E001968F739927848FA689B7892C9384
:10027000A089B1898C91837080648C93938D848DD7
:10028000981306C00288F389E02D80818F7D8083DA
:100290000895EF92FF920F931F93CF93DF93EC019A
:1002A00081E0888F9B8D8C8D981305C0E889F98932
:1002B000808185FD26C0F62E0B8D10E00F5F1F4F4D
:1002C0000F731127E02E8C8DE8120CC00FB607FCBF
:1002D000FACFE889F989808185FFF5CFCE010E94A8
:1002E0002701F1CF8B8DFE01E80FF11DE35AFF4F7F
:1002F000F0829FB7F8940B8FEA89FB898081806236
:100300000AC09FB7F894EE89FF896083E889F9896C
:1003100080818370806480839FBF81E090E0DF9163
:10032000CF911F910F91FF90EF900895CF93DF939E
:10033000EC01888D8823C9F0EA89FB89808185FDDD
:1003400005C0A889B9898C9186FD0FC00FB607FC3E
:10035000F5CF808185FFF2CFA889B9898C9185FF7F
:10036000EDCFCE010E942701E7CFDF91CF91089515
:1003700080E090E0892B29F00E941D0181110C94EE
:1003800000000895209190023091910228173907BA
:1003900071F490918E0280918F02981741F0E09154
:1003A0008E02F0E0E25BFD4F808190E008958FEFD8
:1003B0009FEF089508951F93CF93DF93DC015C9620
:1003C0008D919C915D97009739F421E030E0139670
:1003D0003C932E9312973BC05196ED91FC9152970E
:1003E00050962C915097322F30951FB75E964C91B6
:1003F0005E97742F727041FD6095F8944081772369
:1004000011F0422B01C043234083EC012197F1F707
:1004100048E0508160FF02C0522B01C0532350833B
:10042000EC012197F1F76695415099F78081772388
:1004300019F08323808302C0282B20831FBF5C9682
:100440008D919C915D970197F1F781E090E0DF91AC
:10045000CF911F9108952091900230919102281719
:10046000390771F480918F0220918E0290E0805CB8
:100470009F4F821B910960E470E00E94FA13089577
:1004800080E090E008952091900230919102281729
:100490003907B9F490918E0280918F02981789F0F4
:1004A000E0918E02F0E0E25BFD4F808120918E02B0
:1004B00030E02F5F3F4F2F73332720938E0290E061
:1004C00008958FEF9FEF0895089580E090E00895DC
:1004D0000E946C146115710579F0FB0101900020F8
:1004E000E9F73197AF01461B570BDC01ED91FC9109
:1004F0000280F381E02D099480E090E008950F934D
:100500001F93CF93DF93EC010E946A028C0166E295
:1005100071E0CE010E946A02800F911FDF91CF919E
:100520001F910F9108950C946A028F929F92AF923F
:10053000BF92EF92FF920F931F93CF93DF93CDB7AC
:10054000DEB7A1970FB6F894DEBF0FBECDBF7C011A
:10055000FA01CB0119A2223008F42AE08E010F5DC6
:100560001F4F822E912CA12CB12CBF01A50194010B
:100570000E940E14F901CA01015011096A3014F4E5
:10058000605D01C0695CD8016C93232B242B252B63
:1005900061F7B801C7010E946A02A1960FB6F894EC
:1005A000DEBF0FBECDBFDF91CF911F910F91FF90A6
:1005B000EF90BF90AF909F908F900895DC01ED91E8
:1005C000FC910190F081E02D09947F928F929F928F
:1005D000AF92BF92CF92DF92EF92FF920F931F9351
:1005E000CF93DF938C016A017B01722E9A01AB01DC
:1005F000C701B6010E94E513882319F069E271E092
:1006000027C046015701E894B7F82FEF3FEF4FE7B7
:100610005FE7C501B4010E94E51381110DC02FEF02
:100620003FEF4FE75FE7C501B4010E941B121816A8
:100630001CF46DE271E00CC02FEF3FEF4FE75FE479
:10064000C701B6010E947313181694F461E371E0B8
:10065000C801DF91CF911F910F91FF90EF90DF9034
:10066000CF90BF90AF909F908F907F900C946A0234
:100670002FEF3FEF4FE75FECC701B6010E941B125F
:1006800087FDE4CF20E030E0A901C701B6010E9458
:100690001B1287FF0AC06DE2C8010E94DE02EC0156
:1006A000F7FAF094F7F8F09402C0C0E0D0E0B12C73
:1006B00060E070E080E09FE37B1441F020E030E0F8
:1006C00040E251E40E942012B394F6CFA7019601B4
:1006D0000E94AF116B017C010E9492124B015C01E0
:1006E0002AE0AB01BC01C8010E949502C80FD91FC6
:1006F0007720C1F1C501B4010E94C1129B01AC0178
:10070000C701B6010E94AE116B017C016EE2C80107
:100710000E94DE02C80FD91F20E030E040E251E421
:10072000C701B6010E9478134B015C010E9492122E
:100730006B01E12CF12C2AE0B701A601C8010E944F
:100740009502C80FD91FC701B6010E94C1129B01B3
:10075000AC01C501B4010E94AE116B017C017A9419
:100760007110DACFCE01DF91CF911F910F91FF90E1
:10077000EF90DF90CF90BF90AF909F908F907F9041
:1007800008951F920F920FB60F9211242F933F934B
:100790004F935F936F937F938F939F93AF93BF9389
:1007A000EF93FF9382E992E00E942701FF91EF917E
:1007B000BF91AF919F918F917F916F915F914F9179
:1007C0003F912F910F900FBE0F901F9018951F9281
:1007D0000F920FB60F9211242F938F939F93EF9345
:1007E000FF93E091A202F091A3028081E091A80220
:1007F000F091A90282FD12C090818091AB028F5FBF
:100800008F732091AC02821751F0E091AB02F0E0BF
:10081000EE56FD4F958F8093AB0201C08081FF9112
:10082000EF919F918F912F910F900FBE0F901F907E
:1008300018951F920F920FB60F9211242F933F938A
:100840004F935F936F937F938F939F93AF93BF93D8
:10085000EF93FF93E0919002F0919102309709F4A9
:1008600051C0968DA685B785858591FF04C09C9162
:10087000892329F447C09C91892309F043C0A389A7
:10088000B4899C918589809589238C9386899789E1
:100890000197F1F7608D718DA685B785558538E094
:1008A00020E0CB010197F1F7822F90E09595879595
:1008B000282F4C91452309F02068315091F7868DFF
:1008C00081FD209580918F0290E001968F7399278A
:1008D00030918E02381749F0A0918F02B0E0A25BF0
:1008E000BD4F2C9380938F0203C0868D8160868FCD
:1008F000828D938D0197F1F7A389B4899C918589A5
:10090000892B8C93FF91EF91BF91AF919F918F9124
:100910007F916F915F914F913F912F910F900FBEFB
:100920000F901F901895CF92DF92EF92FF92CF9386
:10093000DF93B091A903882311F0AB2F01C0A0E091
:100940008091AA0390E0880F991F88529F4FC09012
:10095000AF03D090B003E090B103F090B20320E079
:1009600030E0FC01C591D491E881EB23A90160E05E
:1009700070E0EA130CC02F5F3F4F4C155D056E050C
:100980007F0578F33FEF2FEF8FEF9FEF03C0322FFC
:10099000252FCB01632F722FDF91CF91FF90EF9026
:1009A000DF90CF90089590E0FC01EC53FF4F24912D
:1009B000FC01E050FF4F3491FC01E451FF4FE49102
:1009C000EE2309F43CC0222339F1233091F038F4AE
:1009D0002130A9F0223001F584B58F7D12C0273077
:1009E00091F02830A1F02430B9F4809180008F7DFF
:1009F00003C0809180008F77809380000DC084B504
:100A00008F7784BD09C08091B0008F7703C080913B
:100A1000B0008F7D8093B000F0E0EE0FFF1FEE512D
:100A2000FF4FA591B4919FB7F894611104C08C91C8
:100A30003095382302C0EC913E2B3C939FBF089524
:100A40003FB7F8948091D9039091DA03A091DB032A
:100A5000B091DC0326B5A89B05C02F3F19F0019685
:100A6000A11DB11D3FBFBA2FA92F982F8827820F34
:100A7000911DA11DB11DBC01CD0142E0660F771F84
:100A8000881F991F4A95D1F70895CF92DF92EF9270
:100A9000FF920F931F93CF93DF9377FF1DC06A01DF
:100AA0007B01EC016DE20E94DE028C014427552798
:100AB000BA014C195D096E097F092AE0CE010E9436
:100AC0009502800F911FDF91CF911F910F91FF90A1
:100AD000EF90DF90CF9008952AE0DF91CF911F91A2
:100AE0000F91FF90EF90DF90CF900C949502CF92F2
:100AF000DF92EF92FF920F931F93CF93DF93C091FA
:100B00008503CD3219F4E6E8F3E002C0E5E8F3E04E
:100B10008F0120E030E0A901D801DD918D0180ED49
:100B20008D0F8A30B0F4AAE0B0E00E943614CD2ECA
:100B3000DD0FDD08EE08FF08DC01CB018C0D9D1DEB
:100B4000AE1DBF1D9C01AD01205331094109510962
:100B5000E3CFA4E6B0E00E943614DF01219130ED2E
:100B6000320F3A30D0F32E3269F511962C9111974D
:100B700030ED320F3A3030F5022E000C330B20539B
:100B800031094AE0429F8001439F100D1124012E3C
:100B9000000C220B330B600F711F821F931F1296E4
:100BA0000C9120ED200F2A3068F4002E000C110B60
:100BB00000531109012E000C220B330B600F711F23
:100BC000821F931FCD3239F4909580957095619571
:100BD0007F4F8F4F9F4FDF91CF911F910F91FF90CC
:100BE000EF90DF90CF9008954F925F926F927F9237
:100BF0008F929F92AF92BF92CF92DF92EF92FF922D
:100C00001F93CF93DF93C5E8D3E0FE01812C912C95
:100C10005401119180ED810F8A30A8F4AAE0B0E070
:100C2000A50194010E943614812E110F9908AA087B
:100C3000BB08860E971EA81EB91E80E3881A91086D
:100C4000A108B108E6CFC501B40124E630E040E0D8
:100C500050E00E940E149B01AC0160EA76E881E04E
:100C600090E00E94EA136B017C019E01899190ED56
:100C7000980F9A30D0F38E3221F5E901219680E168
:100C8000482E87E2582E612C712CA99180ED8A0F95
:100C90008A30B8F40A2E000CBB0BD097A301920146
:100CA0000E944114C60ED71EE81EF91EC301B201F0
:100CB0002AE030E040E050E00E940E1429013A01A1
:100CC000E4CFC501B40124E630E040E050E00E94EA
:100CD0000E1460E472E48FE090E00E94EA134B018E
:100CE0005C01C701B6016D5F7F4F8F4F9F4F26E0BC
:100CF00030E040E050E00E940E14C501B401620FE4
:100D0000731F841F951FDF91CF911F91FF90EF906C
:100D1000DF90CF90BF90AF909F908F907F906F901B
:100D20005F904F9008950F931F9390E0FC01E05067
:100D3000FF4F6491FC01E451FF4FE491F0E0EE0FAE
:100D4000FF1FE852FF4F8591949100E613EE26E1D4
:100D500030E0462F0E94A8086115710581059105B4
:100D600049F0DC01CB010196A11DB11DBC01CD01F3
:100D70009F7003C060E070E0CB011F910F91089558
:100D8000CF93DF9390E0FC01E050FF4F2491FC01F2
:100D9000E451FF4F8491882361F190E0880F991FFF
:100DA000FC01E654FF4FC591D491FC01EE51FF4F79
:100DB000A591B491611109C09FB7F89488812095DD
:100DC00082238883EC912E230BC0623061F49FB79D
:100DD000F8948881322F309583238883EC912E2BD1
:100DE0002C939FBF06C08FB7F894E8812E2B2883E1
:100DF0008FBFDF91CF9108958E3008F08E508770AD
:100E0000806480937C0080917A00806480937A0073
:100E100080917A0086FDFCCF809178002091790046
:100E200090E0922B08958F929F92AF92BF92CF92B3
:100E3000DF92EF92FF926B017C010E9420054B0133
:100E40005C01C114D104E104F104F1F00E94200519
:100E5000DC01CB0188199909AA09BB09883E934096
:100E6000A105B10570F321E0C21AD108E108F1082B
:100E700088EE880E83E0981EA11CB11CC114D10419
:100E8000E104F10419F7DDCFFF90EF90DF90CF90F0
:100E9000BF90AF909F908F9008952FB7F894609176
:100EA000D5037091D6038091D7039091D8032FBFBB
:100EB0000895CF92DF92EF92FF920F931F93CF93FB
:100EC000DF93CDB7DEB7C054D1400FB6F894DEBF84
:100ED0000FBECDBF0E944D070091AB031091AC0334
:100EE0002091AD033091AE036B017C01C01AD10A91
:100EF000E20AF30A40EDC41647E0D406E104F10427
:100F000018F48091B303CAC06093AB037093AC0331
:100F10008093AD039093AE031092A6031092A503A5
:100F20001092A4031092A3031092A20362E0809196
:100F3000A7030E94C00661E070E080E090E00E949C
:100F4000130761E08091A7030E94C00660E08091D2
:100F5000A7030E94D3048091A8038551823028F40E
:100F60008BE291E10197F1F706C064E170E080E067
:100F700090E00E94130762E08091A7030E94C006E0
:100F80008091B40390E08230910538F0880F991F6A
:100F9000880F991F05970197F1F7F89480E00E9458
:100FA00093046F3F7F4F8F4F9F4F21F41092B303F5
:100FB000789441C081E00E9493046F3F7F4F8F4F30
:100FC0009F4FA1F38E010F5F1F4F6E012FEBC21ACF
:100FD0002EEFD20A780180E00E949304F70160832B
:100FE00071838283938381E00E949304F701648379
:100FF000758386839783F8E0EF0EF11CEC14FD04F3
:1010000051F7789420E030E0F801C080D180E28090
:10101000F3804481558166817781FFEFCF16DF062B
:10102000EF06FF0631F04F3F8FEF5807680778074C
:1010300021F41092B30380E031C0F90183E0F5950B
:10104000E7958A95E1F7EE55FC4F8081880FC4162D
:10105000D506E606F70608F4816080832F5F3F4FD0
:10106000085F1F4F2832310579F62091A60330E042
:101070004091A2038091A30390E0840F911D4091C1
:10108000A403840F911D4091A503840F911D9927FE
:101090002817390771F681E08093B303C05CDE4FF7
:1010A0000FB6F894DEBF0FBECDBFDF91CF911F9179
:1010B0000F91FF90EF90DF90CF9008951F920F92C5
:1010C0000FB60F9211242F933F938F939F93AF935B
:1010D000BF938091D5039091D603A091D703B0918F
:1010E000D8033091D40323E0230F2D3720F4019649
:1010F000A11DB11D05C026E8230F0296A11DB11D3B
:101100002093D4038093D5039093D603A093D70361
:10111000B093D8038091D9039091DA03A091DB03B7
:10112000B091DC030196A11DB11D8093D90390936A
:10113000DA03A093DB03B093DC03BF91AF919F91DF
:101140008F913F912F910F900FBE0F901F90189588
:10115000CF92DF92EF92FF920F931F93E82FF92F18
:1011600005C0015011092109310961F190819623CF
:101170009417B9F305C0015011092109310911F182
:10118000908196239413F7CFC12CD12CE12CF12C14
:101190000AC08FEFC81AD80AE80AF80A0C151D050C
:1011A0002E053F0579F080818623841791F36C2DFD
:1011B0007D2D8E2D9F2D1F910F91FF90EF90DF9031
:1011C000CF90089560E070E080E090E01F910F9173
:1011D000FF90EF90DF90CF900895CF93DF93CDB73E
:1011E000DEB728970FB6F894DEBF0FBECDBF789458
:1011F00084B5826084BD84B5816084BD85B582601C
:1012000085BD85B5816085BD80916E0081608093CC
:101210006E00109281008091810082608093810035
:101220008091810081608093810080918000816045
:10123000809380008091B10084608093B1008091A0
:10124000B00081608093B00080917A0084608093C8
:101250007A0080917A00826080937A0080917A008F
:10126000816080937A0080917A00806880937A0010
:101270001092C100E091A202F091A30282E080836B
:10128000E0919E02F0919F021082E091A002F09105
:10129000A1028FEC80831092AA02E091A602F09145
:1012A000A70286E08083E091A402F091A5028081EC
:1012B00080618083E091A402F091A5028081886022
:1012C0008083E091A402F091A502808180688083F0
:1012D000E091A402F091A50280818F7D808310921D
:1012E000D0031092CF031092CE031092CD03109230
:1012F000CC031092CB038DE991E09093D2038093BD
:10130000D1039091C103963108F058C02DEB30E025
:101310003093CC032093CB032BE931E03093CE0301
:101320002093CD032CE231E03093D0032093CF0300
:1013300040916800983058F031E09E3008F430E079
:1013400021E0822F01C0880F3A95EAF701C084E0BE
:10135000842B80936800983038F09E3040F09631AE
:1013600048F42CE630E008C02DE630E005C02BE65E
:1013700030E002C020E030E03093C9032093C8037E
:10138000983030F481E001C0880F9A95EAF70EC0DA
:10139000292F30E09E3018F42850310902C02E5019
:1013A000310981E001C0880F2A95EAF78093CA03CA
:1013B0008091D1039091D2030197F1F78091CF03EF
:1013C0009091D003892B49F1E0919002F091910224
:1013D00023E0E53BF20709F1309739F0A389B4899E
:1013E0009C918589809589238C938091D3038E7FEE
:1013F0008093D30310928F0210928E0285EB93E0BC
:101400009093910280939002E091C803F091C903F8
:1014100090818091CA03892B808362E08091A70329
:101420000E94C0060E944D07DC01CB01805D974001
:10143000A109B1098093AB039093AC03A093AD03D2
:10144000B093AE0387E38093B40365E371E082E970
:1014500092E00E947F0260EE71E082E992E00E94D9
:101460007F0265E371E085EB93E00E947F0260EE0E
:1014700071E085EB93E00E947F0268EE73E080E00C
:1014800090E00E94130763E671E085EB93E00E9411
:10149000930263E671E082E992E00E949302409138
:1014A000000150910101CA010196909301018093BE
:1014B0000001052E000C660B770B82E992E00E947A
:1014C000450566E271E082E992E00E946A0285E0E9
:1014D0000E94930628EE33E040E050E00E940E1494
:1014E00049015A0186E00E94930628EE33E040E06D
:1014F00050E00E940E1429833A834B835C838EE074
:101500000E94FC069E838D838FE00E94FC061C01D6
:101510000E944D076B017C01612C0E944D07DC018C
:10152000CB018C199D09AE09BF09883E9340A105E6
:10153000B10508F0B7C282E992E00E941101892B3F
:1015400061F382E992E00E94EF00782E8091980387
:1015500090919903A0919A03B0919B030196A11DCC
:10156000B11D8093980390939903A0939A03B0932D
:101570009B03F4E27F1609F473C2E0919603F7151A
:101580003CF02AE0721679F08DE0781277C20BC039
:101590009AE2791641F0ACE27A1270C2809183032C
:1015A000872580938303EF3008F046C2F0E0EB57C5
:1015B000FC4F108280918403882309F428C1209174
:1015C00085033FEB320F822F022E000C990B363031
:1015D00010F4C79707C02156263018F48755910993
:1015E00001C0C097382F3295307F209186034FEB92
:1015F000420F822F022E000C990B463010F4C79731
:1016000007C02156263018F48755910901C0C097AC
:10161000830F909183038913F0C0809197038823EF
:1016200009F40AC280919C0390919D0301969093C6
:101630009D0380939C038091770390917803A09100
:101640007903B0917A038093730390937403A0930A
:101650007503B093760380917F0390918003A091EE
:101660008103B091820380937B0390937C03A093CA
:101670007D03B0937E0380919403882309F464C0B2
:10168000813009F0D4C18091330390913403A0914B
:101690003503B091360380932F0390933003A093CA
:1016A0003103B093320380913B0390913C03A091AE
:1016B0003D03B0913E038093370390933803A0938A
:1016C0003903B0933A038091430390914403A0916E
:1016D0004503B091460380933F0390934003A0934A
:1016E0004103B093420380914B0390914C03A0912E
:1016F0004D03B0914E038093470390934803A0930A
:101700004903B0934A0380915B0390915C03A091DD
:101710005D03B0915E038093570390935803A093A9
:101720005903B0935A038091630390916403A0918D
:101730006503B091660380935F0390936003A09369
:101740006103B093620373C180915303909154037A
:10175000A0915503B091560380934F03909350038B
:10176000A0935103B09352038091330390913403BB
:10177000A0913503B091360380932F0390933003EB
:10178000A0933103B09332038091430390914403BB
:10179000A0914503B091460380933F03909340038B
:1017A000A0934103B093420380914B0390914C036B
:1017B000A0914D03B0914E0380934703909348034B
:1017C000A0934903B0934A038091710390917203EF
:1017D0009093700380936F0380916B0390916C03DF
:1017E000A0916D03B0916E0380936703909368039B
:1017F000A0936903B0936A031AC180919E039091EC
:101800009F03019690939F0380939E0315C190912F
:10181000950391111DC045E853E0ABE6B1E0CA0164
:10182000FC012191CF01222309F403C13D9123172B
:10183000B9F3A1E7B1E0FA018191AF01882309F47E
:10184000D8C29D918917B9F3A2E0A0939403F4C084
:10185000E0919403E23009F4EFC08091850388237E
:1018600009F4EAC020E2E29FF0011124E92B31974C
:10187000E932F10508F0E0C0EC5CFF4F0C94301445
:10188000E5E8F3E020E030E0A90186C00E9477059A
:10189000609333037093340380933503909336033E
:1018A0000E944D07609377037093780380937903C8
:1018B00090937A03C1C091E0813409F094C094C040
:1018C0000E94F4056093430370934403809345039F
:1018D000909346030E944D0760937F0370938003AB
:1018E0008093810390938203A7C0833509F0A4C03D
:1018F0008091430390914403A0914503B091460326
:10190000B095A095909581959F4FAF4FBF4F809315
:10191000430390934403A0934503B09346038CC0C4
:101920000E94F40560934B0370934C0380934D0326
:1019300090934E0381C0873509F07EC080914B03A0
:1019400090914C03A0914D03B0914E03B095A0959A
:10195000909581959F4FAF4FBF4F80934B039093CE
:101960004C03A0934D03B0934E0366C00E947705CD
:1019700060935B0370935C0380935D0390935E03BD
:101980005BC00E9477056093630370936403809348
:1019900065039093660350C0119180ED810F8A30EA
:1019A000B0F4AAE0B0E00E943614012F110F110B21
:1019B000220B330BDC01CB01800F911FA21FB31F41
:1019C0009C01AD012053310941095109E5CF209314
:1019D0003B0330933C0340933D0350933E032CC0A4
:1019E00091E081330CF490E09093970325C085E853
:1019F00093E00E948811992790937203809371035A
:101A00001BC00E94770560936B0370936C038093F7
:101A10006D0390936E0310C00E947705609353038B
:101A200070935403809355039093560305C081E04F
:101A300004C091E09093940380E0909195039F5FA0
:101A4000909395031092960391E0AAE27A1290E0A7
:101A500090938403882309F46ECD662463946BCD40
:101A6000109296031092950310928303B2E0B09304
:101A7000940310928403109297035DCDEE3040F4EE
:101A800081E08E0F80939603F0E0EB57FC4F70825D
:101A90008091840381114FCD8091830378267092C9
:101AA000830349CD662009F4BFC0C0903F03D090A6
:101AB0004003E0904103F090420340904703509070
:101AC00048036090490370904A0380917B03909192
:101AD0007C03A0917D03B0917E038F3F9F4FAF4F5A
:101AE000BF4F11F00E944D07FFEFCF16F9ECDF0654
:101AF000FAE9EF06FBE3FF0609F496C2C701B60157
:101B00000E94C31220E034E244E759E40E9420120C
:101B10007B0188879F83C301B2010E94C31220E02A
:101B200034E244E759E40E9420126B018C0167E71C
:101B300071E082E992E00E94930220E030E04AE7FF
:101B400054E4B70188859F810E941B12811162C2F3
:101B5000E0E030E090E026E04E2F532F692F782F01
:101B600082E992E00E94E50263E871E082E992E096
:101B70000E94930220E030E04AE754E4B601C80135
:101B80000E941B1281114BC2E0E030E090E026E0A1
:101B90004E2F532F692F782F82E992E00E94E502A1
:101BA00066E271E082E992E00E946A0267E771E012
:101BB00085EB93E00E94930220E030E04AE754E492
:101BC000B70188859F810E941B12811104C0E12CFE
:101BD000F12C18861F8226E0A70168857F8185EB9E
:101BE00093E00E94E50263E871E085EB93E00E94D8
:101BF000930220E030E04AE754E4B601C8010E94B5
:101C00001B12811104C0C12CD12C00E010E026E091
:101C1000A601B80185EB93E00E94E50266E271E05F
:101C200085EB93E00E946A0261E971E082E992E04B
:101C30000E947F020E9459078823D1F18091A80356
:101C40008B30B0F18D30A8F08551823088F56091ED
:101C5000A2037091A30376276727762780E090E0A0
:101C60000E94C1122DEC3CEC4CEC5DE30E94781319
:101C70001CC06091A30370E080E090E00E94C3125A
:101C80002DEC3CEC4CEC5DE30E9478136B017C0185
:101C90006091A20370E080E090E00E94C3129B017B
:101CA000AC01C701B6010E94AF112B013C0106C077
:101CB000412C512C20EC622E2FE7722E0E945907E6
:101CC000882309F499C08091A8038C30B1F118F4ED
:101CD0008B3031F077C08551823008F454C072C027
:101CE0006091A40370E080E090E00E94C1126B015B
:101CF0007C01F091A503FF83F7FF0AC09B01AC01B3
:101D000060E070E080E89FEB0E94AE116B017C0107
:101D10002F812F70622F70E080E090E00E94C3124C
:101D20002DEC3CEC4CEC5DE30E947813A70196018E
:101D30000E94AF116B017C014BC08091A4038F8383
:101D40006091A5036F7070E080E090E00E94C31284
:101D50002DEC3CEC4CEC5DE30E9478136B017C01B4
:101D6000AF816A2F70E080E090E00E94C1129B0179
:101D7000AC01C701B6010E94AF116B017C01BF81AC
:101D8000B7FF26C01AC0E091A403EF836E2F6F77D0
:101D900070E0762F66278091A503682B80E090E0A5
:101DA0000E94C1122DEC3CEC4CEC5DE30E947813D8
:101DB0006B017C01FF81F7FF0BC0F7FAF094F7F895
:101DC000F09406C0C12CD12C80ECE82E8FE7F82EC1
:101DD000A3019201C301B2010E94E51381110CC05D
:101DE000A7019601C701B6010E94E513882399F067
:101DF00003C01092940320CE6DE272E082E992E07B
:101E00000E947F0262E078E080E090E00E94130789
:101E10000E94B80138CB65EE71E085EB93E00E943B
:101E20009302B2E08B1A9108A108B108B501A40190
:101E300085EB93E00E9445056BEF71E085EB93E045
:101E40000E947F0261E072E085EB93E00E949302C2
:101E500089819A81AB81BC810297A109B1098983EB
:101E60009A83AB83BC83AC01BD0185EB93E00E94F8
:101E700045056BEF71E085EB93E00E947F0266E120
:101E800072E085EB93E00E949302AD81BE811A1649
:101E90001B061CF466EA71E002C063EA71E085EBA0
:101EA00093E00E947F0263EB71E085EB93E00E9478
:101EB0009302121413041CF466EA71E002C063EA90
:101EC00071E085EB93E00E947F0267EC71E085EBA7
:101ED00093E00E94930222E0B301A20185EB93E01C
:101EE0000E94E50262ED71E085EB93E00E947F02C3
:101EF00064ED71E085EB93E00E94930222E0B7016C
:101F0000A60185EB93E00E94E50262EE71E085EBAD
:101F100093E00E947F0260EE71E085EB93E00E9407
:101F20007F0265EE71E082E992E00E949302B501C2
:101F3000A40182E992E00E9445056BEF71E082E91D
:101F400092E00E947F0261E072E082E992E00E94EA
:101F5000930249815A816B817C8182E992E00E94DF
:101F600045056BEF71E082E992E00E947F0266E135
:101F700072E082E992E00E9493028D819E81AC0121
:101F8000990F660B770B82E992E00E94450569E2A2
:101F900072E082E992E00E947F0263EB71E082E9E5
:101FA00092E00E949302A101330C660B770B82E949
:101FB00092E00E94450569E272E082E992E00E94A7
:101FC0007F0267EC71E082E992E00E94930222E0D6
:101FD000B301A20182E992E00E94E50262ED71E0A4
:101FE00082E992E00E947F0264ED71E082E992E072
:101FF0000E94930222E0B701A60182E992E00E94CA
:10200000E50262EE71E082E992E00E947F0260EEFA
:1020100071E0F4CEEE2D3F2D98858F819CCDEC2D77
:102020003D2D902F812FB3CD67E771E082E992E0DB
:102030000E949302C12CD12C0AE714E4E12CF12C6C
:10204000BAE7B887E4E4EF83E0E030E090E080E0D6
:1020500082CD88E191E09093B6038093B50380919F
:10206000900290919102855B934071F4E091C803D6
:10207000F091C90390818091CA0380958923808360
:10208000109291021092900208951092950210926F
:10209000940288EE93E0A0E0B0E0809396029093E3
:1020A0009702A0939802B093990226E031E0309312
:1020B00093022093920225EC30E030939F0220930C
:1020C0009E0224EC30E03093A1022093A00220EC89
:1020D00030E03093A3022093A20221EC30E0309351
:1020E000A5022093A40222EC30E03093A7022093B3
:1020F000A60226EC30E03093A9022093A8021092A9
:10210000AB021092AC021092AD021092AE0210928D
:10211000B8031092B7038093B9039093BA03A093C6
:10212000BB03B093BC0388E191E09093B603809326
:10213000B5031092CC031092CB031092CE031092F1
:10214000CD031092D0031092CF031092D2031092BD
:10215000D1036091D3036E7F6D7F6093D303669547
:10216000617081E0682784E00E94D30461E084E02C
:102170000E94C006E4E0F1E0E491E093C503E0EFE3
:10218000F0E0E491F0E0EE0FFF1FEE51FF4F85917C
:1021900094919093C7038093C60360E083E00E940C
:1021A000C0068091D30381FD04C061E083E00E94FA
:1021B000D30483E08093C103E3E0F1E0E491E09392
:1021C000C203EFEEF0E0E491F0E0EE0FFF1FE85203
:1021D000FF4F859194919093C4038093C3038AE049
:1021E0008093A7038BE08093A803EAE0F1E0E491F9
:1021F000E093A903E6EFF0E0E491E093AA0380E81E
:102200009EE3A0E0B0E08093AF039093B003A0936F
:10221000B103B093B2034FEF5FEFBA0140932F03C6
:10222000509330036093310370933203109237035D
:10223000109238031092390310923A038FEF99EC01
:10224000AAE9BBE380933F0390934003A09341032B
:10225000B09342038093470390934803A0934903AC
:10226000B0934A0380934F0390935003A09351037C
:10227000B09352038093570390935803A09359034C
:10228000B0935A0380935F0390936003A09361031C
:10229000B0936203409367035093680360936903AC
:1022A00070936A038FEF90E09093700380936F03B5
:1022B0004093730350937403609375037093760394
:1022C00040937B0350937C0360937D0370937E0364
:1022D000109283031092840382E0809394031092FF
:1022E0009503109296031092970310929803109200
:1022F000990310929A0310929B0310929D031092DF
:102300009C0310929F0310929E03109285030895E0
:10231000FC0188279927E89421912032E9F329309C
:1023200010F02E30C8F32B3241F02D3239F468947E
:1023300004C00E94A611820F911D219120532A30C2
:10234000C0F31EF4909581959F4F08957AE0979F72
:10235000902D879F802D910D112408955058BB27F3
:10236000AA270E94C6110C9439130E942B1338F02F
:102370000E94321320F039F49F3F19F426F40C9494
:1023800028130EF4E095E7FB0C942213E92F0E942A
:102390004A1358F3BA17620773078407950720F0AA
:1023A00079F4A6F50C946C130EF4E0950B2EBA2F6D
:1023B000A02D0B01B90190010C01CA01A00111244B
:1023C000FF27591B99F0593F50F4503E68F11A16F7
:1023D000F040A22F232F342F4427585FF3CF469588
:1023E00037952795A795F0405395C9F77EF41F16AA
:1023F000BA0B620B730B840BBAF09150A1F0FF0F74
:10240000BB1F661F771F881FC2F70EC0BA0F621F5F
:10241000731F841F48F4879577956795B795F7954F
:102420009E3F08F0B0CF9395880F08F09927EE0FE4
:102430009795879508950E94FE1208F481E008950B
:102440000E9434120C9439130E94321358F00E94E7
:102450002B1340F029F45F3F29F00C942213511103
:102460000C946D130C9428130E944A1368F399235B
:10247000B1F3552391F3951B550BBB27AA27621780
:102480007307840738F09F5F5F4F220F331F441F8D
:10249000AA1FA9F335D00E2E3AF0E0E832D09150C1
:1024A0005040E695001CCAF72BD0FE2F29D0660FAE
:1024B000771F881FBB1F261737074807AB07B0E8F1
:1024C00009F0BB0B802DBF01FF2793585F4F3AF0F7
:1024D0009E3F510578F00C9422130C946D135F3FCE
:1024E000E4F3983ED4F3869577956795B795F7957D
:1024F0009F5FC9F7880F911D9695879597F9089565
:10250000E1E0660F771F881FBB1F62177307840700
:10251000BA0720F0621B730B840BBA0BEE1F88F70F
:10252000E09508950E94521388F09F5798F0B92FB4
:102530009927B751B0F0E1F0660F771F881F991FF8
:102540001AF0BA95C9F714C0B13091F00E946C131B
:10255000B1E008950C946C13672F782F8827B85F2B
:1025600039F0B93FCCF3869577956795B395D9F750
:102570003EF490958095709561957F4F8F4F9F4F5A
:102580000895E89409C097FB3EF490958095709566
:1025900061957F4F8F4F9F4F9923A9F0F92F96E9AF
:1025A000BB279395F695879577956795B795F11124
:1025B000F8CFFAF4BB0F11F460FF1BC06F5F7F4FC1
:1025C0008F4F9F4F16C0882311F096E911C07723D3
:1025D00021F09EE8872F762F05C0662371F096E8DC
:1025E000862F70E060E02AF09A95660F771F881FAB
:1025F000DAF7880F9695879597F90895990F00084F
:10260000550FAA0BE0E8FEEF16161706E807F907C4
:10261000C0F012161306E407F50798F0621B730B5F
:10262000840B950B39F40A2661F0232B242B252BE0
:1026300021F408950A2609F4A140A6958FEF811D83
:10264000811D089597F99F6780E870E060E0089524
:102650009FEF80EC089500240A94161617061806BA
:102660000906089500240A94121613061406050696
:102670000895092E0394000C11F4882352F0BB0F27
:1026800040F4BF2B11F460FF04C06F5F7F4F8F4F8A
:102690009F4F089557FD9058440F551F59F05F3FC5
:1026A00071F04795880F97FB991F61F09F3F79F074
:1026B00087950895121613061406551FF2CF4695F6
:1026C000F1DF08C0161617061806991FF1CF869578
:1026D0007105610508940895E894BB27662777275C
:1026E000CB0197F908950E94FE1208F48FEF089528
:1026F0000E948B130C9439130E942B1338F00E9404
:10270000321320F0952311F00C9422130C9428130B
:1027100011240C946D130E944A1370F3959FC1F31A
:10272000950F50E0551F629FF001729FBB27F00D7F
:10273000B11D639FAA27F00DB11DAA1F649F6627D4
:10274000B00DA11D661F829F2227B00DA11D621F23
:10275000739FB00DA11D621F839FA00D611D221FDD
:10276000749F3327A00D611D231F849F600D211DC1
:10277000822F762F6A2F11249F5750409AF0F1F044
:1027800088234AF0EE0FFF1FBB1F661F771F881FAD
:1027900091505040A9F79E3F510580F00C942213B0
:1027A0000C946D135F3FE4F3983ED4F386957795D0
:1027B0006795B795F795E7959F5FC1F7FE2B880F53
:1027C000911D9695879597F908950E94FE12880BA2
:1027D000990B0895DB018F939F930E943614BF914C
:1027E000AF91A29F800D911DA39F900DB29F900D60
:1027F0001124089597FB072E16F4009407D077FD57
:1028000009D00E94491407FC05D03EF490958195AB
:102810009F4F0895709561957F4F0895A1E21A2EFC
:10282000AA1BBB1BFD010DC0AA1FBB1FEE1FFF1F74
:10283000A217B307E407F50720F0A21BB30BE40BC4
:10284000F50B661F771F881F991F1A9469F760950B
:102850007095809590959B01AC01BD01CF010895C5
:10286000EE0FFF1F0590F491E02D09940E945D1476
:10287000A59F900DB49F900DA49F800D911D1124D4
:102880000895B7FF0C9436140E943614821B930BE4
:102890000895AA1BBB1B51E107C0AA1FBB1FA617A7
:1028A000B70710F0A61BB70B881F991F5A95A9F7F9
:1028B00080959095BC01CD010895A29FB001B39F72
:1028C000C001A39F700D811D1124911DB29F700D39
:1028D000811D1124911D089581E090E0F8940C94DD
:1028E000711410E0CBE8D0E004C0FE010E94301467
:0C28F0002196CC38D107C9F7F894FFCF2F
:1028FC000100000000004901B600E0009601110142
:10290C00EF00030100000000DB01B6006502DA01F4
:10291C002B024302C2010D0A006E616E00696E66E5
:10292C00006F766600414E20496F54204149522079
:10293C005155414C49545920414E414C59534953DE
:10294C0020414E4420414C45525420535953544538
:10295C004D3A00436F756E743A20004750524D4308
:10296C00004750474741004C617469747564652099
:10297C003D2000204C6F6E676974756465203D20A6
:10298C00004E4F204750532052454144494E472E4C
:10299C002E2E004E4F20474153204445544543545E
:1029AC00454400434F3220636F6E63656E747261F1
:1029BC0074696F6E3A200048756D69646974793A70
:1029CC002000250054656D70657261747572653AEE
:1029DC0020002A4300504D322E3520636F6E636504
:1029EC006E74726174696F6E3A200075672F6D3367
:1029FC0000504D313020636F6E63656E747261747C
:102A0C00696F6E3A2000434F20636F6E63656E747E
:102A1C00726174696F6E3A200070706D0046616966
:102A2C006C656420746F20726561642066726F6DD2
:0E2A3C00204448542073656E736F72210000B1
:107E0000112484B714BE81FFF0D085E080938100F7
:107E100082E08093C00088E18093C10086E0809377
:107E2000C20080E18093C4008EE0C9D0259A86E02C
:107E300020E33CEF91E0309385002093840096BBD3
:107E4000B09BFECF1D9AA8958150A9F7CC24DD24C4
:107E500088248394B5E0AB2EA1E19A2EF3E0BF2EE7
:107E6000A2D0813461F49FD0082FAFD0023811F036
:107E7000013811F484E001C083E08DD089C08234E0
:107E800011F484E103C0853419F485E0A6D080C0E4
:107E9000853579F488D0E82EFF2485D0082F10E0AE
:107EA000102F00270E291F29000F111F8ED06801E7
:107EB0006FC0863521F484E090D080E0DECF843638
:107EC00009F040C070D06FD0082F6DD080E0C81688
:107ED00080E7D80618F4F601B7BEE895C0E0D1E017
:107EE00062D089930C17E1F7F0E0CF16F0E7DF06D8
:107EF00018F0F601B7BEE89568D007B600FCFDCFD4
:107F0000A601A0E0B1E02C9130E011968C91119780
:107F100090E0982F8827822B932B1296FA010C0160
:107F200087BEE89511244E5F5F4FF1E0A038BF0790
:107F300051F7F601A7BEE89507B600FCFDCF97BE46
:107F4000E89526C08437B1F42ED02DD0F82E2BD052
:107F50003CD0F601EF2C8F010F5F1F4F84911BD097
:107F6000EA94F801C1F70894C11CD11CFA94CF0C13
:107F7000D11C0EC0853739F428D08EE10CD085E9AC
:107F80000AD08FE07ACF813511F488E018D01DD067
:107F900080E101D065CF982F8091C00085FFFCCF94
:107FA0009093C60008958091C00087FFFCCF809118
:107FB000C00084FD01C0A8958091C6000895E0E648
:107FC000F0E098E1908380830895EDDF803219F02E
:107FD00088E0F5DFFFCF84E1DECF1F93182FE3DFCA
:107FE0001150E9F7F2DF1F91089580E0E8DFEE27F6
:047FF000FF270994CA
:027FFE00040479
:0400000300007E007B
:00000001FF
